:100000000C942A000C943F000C943F000C943F0089
:100010000C943F000C943F000C943F000C943F0064
:100020000C943F000C943F000C943F000C943F0054
:100030000C943F000C943F000C943F000C943F0044
:100040000C943F000C943F000C943F000C943F0034
:100050000C943F0011241FBECFE5D8E0DEBFCDBF1A
:1000600010E0A0E6B0E0EAEAF7E002C005900D92E9
:10007000A436B107D9F70E9447000C94D3030C941F
:10008000000089E683BFBB9A08958CBF08956F92E4
:100090007F928F929F92AF92BF92CF92DF92EF9218
:1000A000FF920F931F93DF93CF93CDB7DEB72E97B9
:1000B0000FB6F894DEBF0FBECDBF89E683BFBB9AF3
:1000C00030ED832E37E0932E5E010894A11CB11C05
:1000D0006624639424ECC22E2BE1D22E9FE0E92EFD
:1000E000F12CEC0EFD1E84EB782E83E090E060E0B6
:1000F00070E00E9445010197C1F7C4010197F1F733
:10010000850183E090E060E070E00E944501019786
:1001100019F4F801608202C0F8011082C60101974B
:10012000F1F70F5F1F4F0E151F0559F759855295AF
:10013000550F507E59874A854295407F4A873B85B7
:10014000330F330F330F3B872C85220F220F2C8761
:100150009D85990F9D878E85182F152B142B132B9A
:10016000122B192B84E090E064E070E041E050E055
:100170000E94B10184E090E065E070E040E050E072
:100180000E94B10184E090E066E070E041E050E060
:100190000E94B10184E090E067E070E040E050E050
:1001A0000E94B1011433B9F484E090E064E070E09F
:1001B00040E050E00E94B10184E090E065E070E032
:1001C00040E050E00E94B10184E090E066E070E021
:1001D00040E050E029C01E3179F484E090E064E012
:1001E00070E041E050E00E94B10184E090E065E001
:1001F00070E040E050E031C01C31F9F484E090E060
:1002000064E070E040E050E00E94B10184E090E0E2
:1002100065E070E041E050E00E94B10184E090E0D0
:1002200066E070E041E050E00E94B10184E090E0BF
:1002300067E070E040E050E020C01C3309F584E046
:1002400090E064E070E040E050E00E94B10184E0A2
:1002500090E065E070E041E050E00E94B10184E090
:1002600090E066E070E040E050E00E94B10184E080
:1002700090E067E070E041E050E00E94B10135CFCE
:10028000103109F032CF7CBE30CF8230F9F08330AC
:1002900018F4813031F407C0833059F1843009F407
:1002A00042C080E00895693019F41ABA89B30895FC
:1002B0008AB321E030E0062E02C0220F331F0A94D9
:1002C000E2F7209528232ABB89B325C0693019F4A9
:1002D00017BA86B3089587B321E030E0062E02C036
:1002E000220F331F0A94E2F72095282327BB86B3F9
:1002F00012C0693019F414BA83B3089584B321E0AD
:1003000030E0062E02C0220F331F0A94E2F7209538
:10031000282324BB83B390E002C0959587956A9506
:10032000E2F781700895693019F411BA80B3089525
:1003300031B381E090E0062E02C0880F991F0A9425
:10034000E2F7282F2095232321BB22B3822B82BBE7
:1003500080B390E002C0959587956A95E2F7817029
:100360000895823009F441C0833020F4813009F0CF
:10037000D7C007C0833009F46CC0843009F0D0C006
:100380009CC06B3521F48FEF8ABB4BBB089544238F
:1003900021F0413009F0C4C014C0693021F48FEF5E
:1003A0008ABB1BBA08958AB321E030E002C0220F55
:1003B000331F6A95E2F7822B8ABB8BB320952823E3
:1003C00012C0693021F48FEF8ABB8BBB08958AB3CA
:1003D00021E030E002C0220F331F6A95E2F7822B42
:1003E0008ABB8BB3282B2BBB08956B3521F48FEF81
:1003F00087BB48BB0895442321F0413009F090C0E9
:1004000014C0693021F48FEF87BB18BA089587B301
:1004100021E030E002C0220F331F6A95E2F7822B01
:1004200087BB88B32095282312C0693021F48FEF51
:1004300087BB88BB089587B321E030E002C0220F5C
:10044000331F6A95E2F7822B87BB88B3282B28BB22
:1004500008956B3521F48FEF84BB45BB0895442389
:1004600021F0413009F05CC014C0693021F48FEFF5
:1004700084BB15BA089584B321E030E002C0220F96
:10048000331F6A95E2F7822B84BB85B3209528231E
:1004900012C0693021F48FEF84BB85BB089584B30B
:1004A00021E030E002C0220F331F6A95E2F7822B71
:1004B00084BB85B3282B25BB08956B3521F48FEFC2
:1004C00081BB42BB0895442319F0413049F515C062
:1004D000693021F48FEF81BB12BA089581B321E016
:1004E00030E002C0220F331F6A95E2F7822B81BBF6
:1004F00082B32095282322BB0895693021F48FEF21
:1005000081BB82BB089581B321E030E002C0220F9D
:10051000331F6A95E2F7822B81BB82B3282B22BB63
:100520000895833019F1843009F43CC0823009F019
:1005300054C0442321F0413009F04FC00CC027B310
:1005400081E090E002C0880F991F6A95E2F78095DC
:10055000822387BB089527B381E090E002C0880F13
:10056000991F6A95E2F7282B27BB0895442319F0B9
:10057000413099F50CC024B381E090E002C0880FAF
:10058000991F6A95E2F78095822384BB089524B36E
:1005900081E090E002C0880F991F6A95E2F7282B4E
:1005A00024BB0895442319F04130B9F40CC021B3A1
:1005B00081E090E002C0880F991F6A95E2F780956C
:1005C000822381BB089521B381E090E002C0880FAF
:1005D000991F6A95E2F7282B21BB0895882321F4FF
:1005E00081E067E040E004C0813041F467E041E031
:1005F0000E94B10183E062E040E00AC0823059F419
:1006000081E067E040E00E94B10183E062E041E008
:100610000E94B1010895833051F481E067E041E028
:100620000E94B10183E062E041E00E94B1010895BF
:10063000EF92FF920F931F93CF93DF93EA010E94F3
:10064000B103009719F420E030E01DC0019660E688
:1006500070E00E94B1037C0183E090E0E80EF91E97
:10066000C70162E270E00E947F038C010E191F092E
:10067000CE01B701A8010E94A2030C0F1D1FF801B3
:10068000108221E030E0C901DF91CF911F910F91DD
:10069000FF90EF900895DB010D900020E9F711978E
:1006A000A61BB70B4A2F50E00E948A0320E030E0DF
:1006B000892B11F421E030E0C90108950E94610303
:1006C0000895FC0188279927E89421912032E9F3C5
:1006D000293010F02E30C8F32B3241F02D3239F48E
:1006E000689404C00E94CB03820F911D2191205376
:1006F0002A30C0F31EF4909581959F4F0895FC0118
:100700008191861721F08823D9F799270895319789
:10071000CF010895FB01DC014150504088F08D91DC
:1007200081341CF08B350CF4805E619161341CF0D7
:100730006B350CF4605E861B611171F3990B0895A3
:10074000881BFCCFFB01DC014150504048F0019078
:100750000D920020C9F701C01D9241505040E0F7B2
:100760000895FB0151915523A9F0BF01DC014D9182
:1007700045174111E1F759F4CD010190002049F0EE
:100780004D9140154111C9F3FB014111EFCF81E0BB
:1007900090E0019708957AE0979F902D879F802D94
:0A07A000910D11240895F894FFCF85
:0407AA00223A0000EF
:00000001FF
